:040000006F10805BA2
:1000040000000000000000006F0080086F008048BE
:1000140000000000000000000000000000000000DC
:1000240000000000000000000000000000000000CC
:100034006F004006000000006F00E00500000000B3
:100044006F0080056F0060056F00E04C6F002005B5
:100054006F0000056F00E0046F00C00400000000A2
:100064006F0060046F0040046F0020046F00000400
:100074006F0000496F00C003000000006F006003C0
:100084006F0040036F0020036F0000036F00E00265
:1000940001A001A001A001A001A001A001A001A054
:1000A40001A001A001A001A001A001A001A001A044
:1000B40001A001A001A001A001A001A0B717004068
:1000C400130770052380E704130780FA2380E704ED
:1000D4002396A70223800704371700408347270588
:1000E400898BEDDF835707053717004083472705C2
:1000F400898BEDFF3717004083472705898BEDDF98
:100104000355070582804111814601468145014519
:1001140006C6EF00E07AB727004011472383E78043
:10012400B7F700E003A707D16D9B23A8E7D003A787
:1001340007D15D9B23A8E7D0730050100100010094
:10014400B240410182804111814601468145014509
:1001540006C6EF00E076B727004011472383E78007
:10016400B717004003C7E70283C6E70483D78703B2
:1001740011661377F70F93E6360063E5C700719BAA
:1001840013671700B7170040930570052380B70461
:10019400130680FA2380C704238207022387E70219
:1001A4002387D70403C7B70413670702A385E704AB
:1001B4002380070437F700E0832607D193E646003F
:1001C4002328D7D0832607D1DD9A2328D7D07300DC
:1001D4005010010001002380B7042380C70403C723
:1001E400B7041377F70DA385E70423800704B2400F
:1001F40041018280B717004003C7E70283C6E704C2
:1002040083D7870311661377F70F93E6360063E508
:10021400C700719B13671700B7170040930570055B
:100224002380B704130680FA2380C70423820702BD
:100234002387E7022387D7042380070437F700E0E6
:10024400832607D193E646002328D7D02380B7041A
:100254002380C70483C6F70093E60604A387D70068
:1002640083C6B70493E60602A385D704E576910610
:10027400558D420541812390A702832607D1DD9A3B
:100284002328D7D083A7470C93F7070899C3730093
:10029400501001000100B7170040130770052380B8
:1002A400E704130780FA2380E70403C7B70413772E
:1002B400F70DA385E704238007048280011126CA71
:1002C400B716004006CE22CC4AC84EC683C7E60203
:1002D40003C7E60483D686031166AA8493F7F70F4F
:1002E4001367370063E5C600F19B93E717003714E3
:1002F40000409309700523003405130980FA230094
:100304002405230204022307F4022307E404230040
:10031400040413055002B920B7F700E003A707D17E
:100324001367470023A8E7D02300340523002405DE
:100334000347F40013670704A307E4002567D98C77
:100344002310940203A707D15D9B23A8E7D0730071
:10035400501001000100F2406244D2444249B249C3
:1003640005618280B7170040930670052380D70487
:10037400130780FA2380E70403C6B7041376F60D47
:10038400A385C704238007041376050225C603C684
:10039400A700118A0DE22380D7042380E70403C752
:1003A400A700136747002385E7009307004B01006C
:1003B4000100FD17EDFFB717004093067005238079
:1003C400D704130780FA2380E7047D892394A700C8
:1003D4000100010001000100238007042380D704E9
:1003E4002380E704854637270040A303D780238072
:1003F40007048280137605046DDE03C6A700418AD4
:100404000DE22380D7042380E70403C7A700136702
:1004140007012385E7009307007D01000100FD1714
:10042400EDFFB7170040930670052380D704130728
:1004340080FA7D892380E704136505042394A700CB
:100444000100010001000100238007042380D70478
:100454002380E7048D463727004041BF4111814680
:1004640001468145014506C6A129B7170040130777
:1004740070052380E704130780FA2380E70403C789
:100484006704136717002383E70423800704B2403B
:100494004101828081460146814501451521B717F6
:1004A4000040130770052380E704130780FA2380B4
:1004B400E7047D572396E70203C767041367170011
:1004C4002383E7042380070401A0BD473305F50215
:1004D40001007D1575FD8280411122C426C206C625
:1004E400AA84014463179400B24022449244410117
:1004F400828005041305803E4204C13F4180DDB77C
:10050400B7170040130700032388E702854723A099
:10051400F1DC73002030B717004013070008239F55
:10052400E70873002030797122D493870131138452
:10053400813018409C4362C406D626D24AD04ECE9F
:1005440052CC56CA5AC85EC666C26AC0014C635DC4
:10055400F70AB7040800AA8CAE8B014C138D4188AE
:100564001389C1309389C188FD14138A8181930A48
:10057400600417AB01E0130BEB0763577C09832579
:100584000D000326090063DBC50483A7090003D714
:10059400818883060A003E97658F23A6E18883C776
:1005A4007181639C560183C66181958FB387B702BD
:1005B400B3C7C702B69793F7F70F21835A97030778
:1005C4000700050C850CB307F702A187A38FFCFE77
:1005D40083270D00850723A2F18845B71C408507B2
:1005E40023A4F13097F0FFDFE780601B01C523A24D
:1005F400018861B783C7118881CB23A4013097F0A8
:10060400FFDFE780C01965F5B25022546285925429
:100614000259F249624AD24A424BB24B224C924CA2
:10062400024D45618280797122D426D24AD04ECEC1
:1006340006D6AA892E89B284368497F0FFDFE78034
:10064400203F0DC14E8597F0FFDFE780405A97F0B9
:10065400FFDFE780205311ED2AC697F0FFDFE78024
:1006640020433245B250225492540259F249456112
:1006740082804A8597F0FFDFE780605797F0FFDFBD
:10068400E7804050B717004003A7870C7978F578C6
:100694007D730145056E7D18FD18896E7D139316D3
:1006A4000501C18263F68608B386A40083C50600EB
:1006B40083A6070C2546B3E6C60123A0D70C7D16F6
:1006C4001376F60FB376070135EA01000100010045
:1006D400010001001386870C23A4D70C010001003C
:1006E40001000100010001000100010003A7070C43
:1006F4003377670023A0E70C01000100010001002B
:1007040001000100010001000100010001000100DD
:1007140033E7D60123A4E70C010001000100010026
:1007240083A5470C0505139F350163530F0814C2B5
:1007340097F0FFDFE780C03505452DB7139F85018E
:1007440023A4D70C135F8F413377170163540F0031
:1007540033E7C60123A4E70C0100010001000100F6
:10076400010001000100010001000100010001007D
:100774000100010001000100010001003367D701FD
:10078400860593F5F50F23A4E70C01000100010091
:10079400010001000100010001000100010001004D
:1007A400010001000100010001000100010001BF7E
:1007B40023A4E70CEDB583C7E18795CBB7170040B9
:1007C40083A7470C93F707089DE34111914503C59F
:1007D400218206C6970000E0E780E072B717004068
:1007E400130720FDA381E704B24041018280B717BB
:1007F4000040130720FDA381E7048280411106C64F
:100804002D21553FF5BF2303048095472303F4802E
:100814002302A480828083076480E3CE07FE23033F
:100824000480828083076480E3CE07FE034544800E
:10083400828083076480E3CE07FE2302A480828043
:10084400411126C44AC24EC006C61377F50BAD4704
:10085400AA892E8995446306F70019456D37653FCB
:100864008D444E854D37FD59FD1463983401B240D3
:10087400A24412498249410182801355090113752A
:10088400F50F453F2209CDB7011126CC06CEB7049A
:10089400080051371545853F713769372AC6A53F8A
:1008A40032459377150089EB136515001375F50F21
:1008B400F240E24405618280FD14E9FC0145CDBFAC
:1008C400397126DC4ADA4ED852D656D45AD25ED082
:1008D40006DE62CE66CCB7E700E07D5783AA070048
:1008E40022C603AA470023A0E71823A2E718B717D4
:1008F4000040130770052380E704130780FA238060
:10090400E70483C74704930B75FFB684E20793FBA0
:10091400FB0F8546AA892E8B328937240040E18754
:10092400015763FA76016308D5008946130700026C
:100934006313D5000157D98F93F7F70FB71C004005
:100944002382FC0411472303E4801305F00F653D63
:10095400094CD13563697C11B70707003E9B378783
:1009640007007955637EEB02B3079B00636AF702C5
:10097400A9476399F90689E48144713D26850DA050
:10098400DA850945753D05090345F9FFFD14050B95
:100994004D3581C49377FB0FFDF7FD3569FD7D551A
:1009A400B7170040130770052380E704130780FA84
:1009B4002380E70403C74704418B2382E704F250F2
:1009C400B7E700E023A0571123A24711E2543244B1
:1009D4005259C259325AA25A125B825B724CE24C8F
:1009E40021618280A5476395F90685691309F00F93
:1009F400B3069900B3742B01B6941349F9FFB37489
:100A04009900856B33796901416B9387F9FFB3F7DB
:100A1400270199E363FC340193D94900C147E3E614
:100A240037FF99BF0569C1697D19D9B71305800DD1
:100A340063886901130500026384790113051008B2
:100A4400CA85FD3B913521DD4E99B3843441D9B734
:100A5400DA852D45F533CA94E30099F20509D933B3
:100A6400A30FA9FED5BF9387F9FF93F7F70F636C24
:100A7400FC0803C75C04B70708001377070219E3EF
:100A8400B78707007955E37DFBF033079B00E3E963
:100A9400E7F089476390F9048980D549E38E04EC33
:100AA400DA850945713B11090327C9FF91472320C2
:100AB400E48003076480E34E07FE23033481FD17BB
:100AC400EDFBFD14110B81C49377FB0FE9FF6D3B24
:100AD40071F5F1B58547E387F9F4DA852D458D3352
:100AE4009389F4FFE38A04E8353B93F7390091EBEB
:100AF400832604800327090093074900E39FE6E661
:100B04003E89CE84F1BFB5476396F9001305900B77
:100B1400DD399DB5B1471305B00AE38BF9FE99475A
:100B2400639EF902DA852D45213B81448D4BA14911
:100B3400D53963967401832704802320F900850442
:100B4400E39834FF8327048013172B0163550700B0
:100B54002312F90015B52322F90039BD9D4763918D
:100B6400F90281451305B004E1399D44FD595D390D
:100B7400B30799002380A700FD14E39A34FFEDBB6B
:100B8400A1476392F90409338144630D0B0085473F
:100B9400930440046308FB009304000563048B0181
:100BA4009304C0031375C507E30895DC1945A139FF
:100BB4009D31054589392685AD3909459D39E93188
:100BC400E31C05DAE9BBE38909DAF1547DB319CDF5
:100BD400B7170040130770052380E704130780FA52
:100BE4002380E7042396A70223800704828019C187
:100BF400814799E982803387F500834607003307EC
:100C0400F50085072300D700E397C7FEE5B719C1B0
:100C1400FD5781E98280910503A7C5FF1105232EA5
:100C2400E5FE7D16E319F6FEF5B7011122CC138417
:100C3400818E1C4006CE26CA4AC881C7829723A447
:100C4400018E5C4089CB03D5018E51375C4082977D
:100C540003D5218EAD3F1C406398071283C711CF83
:100C6400858B63810710A38801CE83C731CF0947E1
:100C7400639FE70AD521971001E0E780A0CB938713
:100C8400C18D984303C611AFBE8483C701AF939649
:100C94001700BA9683D606006380060E83C701AF99
:100CA40063F4C70686073E978355070023100700A1
:100CB40003D5018E2EC6213F9387818F9C4303C5A4
:100CC40001AF13172500BA979C43B24582972A892E
:100CD40003D5218EED3D83C701AF139717009C40C8
:100CE400BA9703D707003369E90023902701938754
:100CF40001AF83C70700850793F7F70F2388F1AE89
:100D040003C711AF63E4E700238801AE1C40ADEFD5
:100D140003D5018E6D3D970000E0E78020216244F9
:100D2400F240D244424903D5218E05614DB50D47A9
:100D34006398E700152197E000E0E780A09B81B766
:100D440015476398E7000929973001E0E780A0ED93
:100D54003DB71D47E395E7F2012197B000E0E78036
:100D6400206631BF83C781D3918BE38A07F0973024
:100D740001E0E780C0C221B7850793F7F70F238806
:100D8400F1AEE3E4C7F019BFF2406244D2444249F1
:100D9400056182809167B7C600409387373041115F
:100DA40023A6F62001000100938701AF984F938793
:100DB400019E9C433A07F053B7071000FD17918F2B
:100DC4009983D98F3EC6B1679387373023A6F6201F
:100DD4003245410182804111B7170040985F3AC6FD
:100DE400945F3247E39CE6FE32454101828093875B
:100DF400819C9C43411122C406C62A84DDEF4165CF
:100E0400130525F597D000E0E780205C5DC5834796
:100E1400C5002316F5008327840FD9E7232CA40EDD
:100E2400232EA40E8547231AF402232005008347AA
:100E3400B40054412315F5000347A4002304E5003E
:100E44001387C1CE184F1385170215811C437D15D6
:100E54001375F50F9CC25C439386060213070702C1
:100E640023A2F6FE832787FE23A4F6FE8327C7FE6C
:100E740023A6F6FE832707FF23A8F6FE832747FF52
:100E840023AAF6FE832787FF23ACF6FE8327C7FF3A
:100E940023AEF6FE45FD83D741C485072392F1C4F2
:100EA400B2402244410182808327C40F88C3835700
:100EB4004403232EA40E8507BDB78347840023086B
:100EC4000400054593C747002304F400D1BF8347BA
:100ED400E50193F7E70F89CB014582800145B240D4
:100EE40022449244410182808347F501F5F7411180
:100EF40006C622C426C2034705018347850019C7D5
:100F04000346650283C691AC6367D60093F6070176
:100F1400F1D6014409CB034405150347F514C18BED
:100F24002204598C81CB8347451503473515A20705
:100F3400D98F3E9445D49387C1C3B44B938741ABB7
:100F440003864701FD54B705C0A803A7060883D745
:100F54004607635B0602B307F74063F39700BE845A
:100F64009442E5F69387C18F9C438297E3E8A4F605
:100F74001304B4141580130404023385A4403335D8
:100F8400850013451500A1BFE377F7FC2E97E1B761
:100F9400411122C61384019D184026C44AC21C5F15
:100FA4009384C19C9983858BA9CF9307F0FB1CDFA5
:100FB40083C7C1CE93F707041389C1CE99C793871A
:100FC400C18F9C43829723AEA1CE8547A388F1CEDF
:100FD4009387019E9C430327C900B8D3930700F865
:100FE4002388F1CE8307690063DD07009C40130763
:100FF40000FC2389E1CE9C439983858B99E3238963
:1010040001CE9C40D8430583058B19C7D843759BF3
:10101400D8C3D843799BD8C318401C5F8583858B7C
:10102400C9CBF5571CDF01000100010001000100DC
:1010340001000100010001000100010001000100A4
:101044000100010001000100010001000100010094
:101054000100010001000100010001000100010084
:101064000100010001000100010001000100010074
:101074000100010001000100010001000100010064
:101084000100010001000100010001000100010054
:101094000100010001000100010001000100010044
:1010A4000100010001009387019E9C431307500433
:1010B400B8CB18401C5F9183858B99CBBD571CDF3F
:1010C4009387019E9C4323A8070485472388F1CE78
:1010D4003244A244124941017300203037F700E042
:1010E400832707D1CD9B2328F7D09387C1CE03C78D
:1010F4004700058B01EF03C73700058B01EB03C7DE
:101104002700058B01E773005010D5B782809387C1
:10111400019E9C43094798C3D1B79387019E9C4382
:1011240037C700401306C003A8CB9306200393855A
:10113400C1CE83278720C18393F7F7036369F60041
:1011440083278720C18393F7F70363E6F60083C7F9
:101154004500858BF9DF828037F700E0832707D1CC
:10116400CD9B2328F7D09387C1CE03C74700058BB7
:1011740001EF03C70700058B01EB03C71700058BBD
:1011840001E773005010D5B782809387019E9C437A
:1011940037C700404146A8CBE5469385C1CE832797
:1011A4008720C18393F7F703637DF60083278720A5
:1011B400C18393F7F70363E6F60083C74500858B85
:1011C400F9DF8280034715001507719B0D072A97E5
:1011D40009C68347F7FF2300F60083470700054548
:1011E40093F60701A9E68DC103C621CF9306000C2F
:1011F4000945631ED60293F6F70605466399C602AF
:10120400E207E18763C507028347E7FF0347D7FF88
:10121400A20793F70770D98F139707014183937639
:10122400074099C613670780239CE19C014582808F
:10123400239CF19CE5BF1386019E08429386C1CE90
:10124400184593170701C18313781720BE856307D8
:101254000806137707206303071003C726001367E4
:1012640017002387E1CE1307001938D1130700F8BC
:101274002388E1CE1387019D084337080010585591
:10128400719B1367270058D518413367070118C1AC
:101294001387C19D18431DC3032847008328870073
:1012A40003250800336515012320A8000328C7007F
:1012B400584B03250800498F2320E80013F7251015
:1012C40021C393F50510D5C503C70600136717009E
:1012D4002386E1CE238801CEA38801CE1387C19D46
:1012E400184309CF084B032847010C41B3E5050116
:1012F4000CC1084318470C414D8F18C1239A01CEE5
:1013040083C6460093C7F7FFC207E206E186C1839E
:10131400184263DF06009396170163D30606305321
:10132400894663E7C60085462388D1CE3453FDFE43
:10133400938641AB8386460163DD060093960701DD
:10134400C18663D306047053894663E4C6007453AC
:10135400FDFE1447F58F1CC77300203003C7160029
:1013640013671700A386E1CE238801CE239A01CE0A
:1013740005B703C7360013671700A387E1CE99BFEB
:1013840085462388D1CE6DB7544713960601635D15
:101394000600B7061000FD1674D3938601AF944E71
:1013A400850623A4D1B075B7A166D58F5DB7138721
:1013B40081D08346B70183C791D3B69793F7F70FCC
:1013C400FD4663EAF604504BA384F1D083C791D061
:1013D40005473317F700A38CF1D2718F29E78146B3
:1013E40013050002B355E600858981C5850693F689
:1013F400F60F0507E318A7FEB3F6D70201478147A6
:1014040013050002B355F600858999C96317D700FF
:10141400A384F1D0828081177DB7050762076187B5
:101424008507E391A7FE82809387419E9843B7572F
:1014340002009387079F8326070913965600635873
:101444000600832607091396660063440600FD1709
:10145400FDF38280A16785072A876397F50083C718
:1014640001990145D5E38280014555C3CDC1B30738
:10147400E0408D8BBA97C207C183130740036369A9
:10148400F702138701A60843138781A514436394C5
:10149400A602138741AB185B014535CB4111C20746
:1014A40006C60545DD8D0297B240014541018280A3
:1014B4001387C1A5C9BF0357650029E70357450032
:1014C4006362F704B306F74021466370D602104105
:1014D400938687001D8FAA96611790C22392E60017
:1014E4002393060014C12312F500A1672313B5004A
:1014F40085076397F50083C70199FD172388F19841
:1015040021058280084161B7014535F382808280DC
:1015140001CD938701A603A80700938781A58C4377
:101524000147C28763E3B70082809443636FF50683
:1015340063EDA60613868700E368C5FE03D567003E
:10154400216605066317C50003C6019905062388AD
:10155400C19823930700638407031386C1A510422F
:10156400630FF6000356670019EA83D7470014C3D4
:1015740083564700B697A1072312F700BA8798430A
:10158400E304B7FA9386C1A59442E30FD7F88356D0
:101594006700D9FA83D64700035647001843A106CB
:1015A400B2962392D70098C382803E87B6879DBFA8
:1015B800974100209381014317710020130101A472
:1015C80013054000972500209385452317360020F2
:1015D8001306C67D63FAC5008322050023A05500C3
:1015E80011059105E3EAC5FE17D501001305056746
:1015F800973500209385857B1386018763FAC5009C
:101608008322050023A0550011059105E3EAC5FED4
:101618001385018797650020938545F66377B500A4
:10162800232005001105E36DB5FE9302800873A021
:101638000230972200209382621C93E2120073907A
:10164800523097320000938262D87390123473003C
:101658002030B717004003C777051A0592054D8D4E
:101668001377E70F13653500A38BE7041375F50FA0
:10167800A38CA7048280B717004003C777051377A8
:10168800E70FA38BE704130700F8A38DE7043D4792
:10169800238CE70413075003A38CE70482800547D3
:1016A800B7170040238DE704371700408347A70585
:1016B800858BEDFF0355C705520551818280B71709
:1016C800004003C7E704930670052380D704137707
:1016D800C70F0D89930680FA2380D704498F238783
:1016E800E704238007048280B717004003D58700EA
:1016F8005D714EDE4205418186C6A2C4A6C2CAC03B
:1017080052DC56DA5AD85ED662D466D26AD06ECE29
:101718009377050C1307000881496386E7181307B8
:101728000004639AE714B7240D8F7D89938404809D
:10173800B3D4A4029167938707E8BE94A1679387FF
:1017480007D0B3D4F402EFB0214997C701009387BB
:10175800E7569043D443EFA0F17CEFB0710AAA8B0F
:10176800939C040103D9018793DC0C0163150900DC
:10177800056913090980B71700401307700523800E
:10178800E704130780FA2380E704B71A00400547E7
:10179800939D0401096C2389E704514B014381455A
:1017A800138D0A0413067005930680FA094893DD21
:1017B8000D01130C0C71A9482300CD002300DD0096
:1017C80023962A0323000D0083C72A05898BEDDFA2
:1017D80083D70A0583C72A05898BEDFF83C72A05A6
:1017E800898BEDDF83D70A0523982187C207C18338
:1017F80033859741131A0501135A0A41630B0A14DA
:101808003307BA02635E070C05034203135303014F
:101818006368680C63D9050A3305B0409315050160
:10182800C185C204C18063D7450B096513050571DD
:101838003385A502B7170040130770052380E70416
:10184800130780FA2380E7042396370323800704CD
:101858003345950242054181B640264496440649DF
:10186800F259625AD25A425BB25B225C925C025DC8
:10187800F24D61618280B1E3B77489097D899384EF
:101888000480B3C4A4029167938707E8BE94A16754
:10189800938707D0B3C4F402EFB0013497C70100AF
:1018A800938747427DB597C701009387E7408564D2
:1018B80083AB07009384843865B5930B0000954487
:1018C80045B53A89D5BDB387FC40139A0701135A29
:1018D8000A4181BF0965130505713305AA028DBF49
:1018E8003385B74163E4FC003385FD403305850348
:1018F8003344B50363C5880013150401A9BF528595
:1019080032C636C4EFB06163DE85EFB0E133EFB0C5
:10191800A15C1313050113530341330769404207C0
:101928004183A24632460948A948631AE9001307C9
:101938001900634440011307F9FF420741837D1BE7
:10194800137BFB0FCA89D285E31D0BF62398E1862A
:1019580065B7014511B7B717004003D5870039713E
:101968005ECE4205418106DE22DC26DA4AD84ED612
:1019780052D456D25AD062CC66CA6AC86EC6937719
:10198800050C13070008814B6388E714130700044C
:10199800639CE710B7240D8F7D8993840480B3D4AA
:1019A800A4029167938707E8BE94A167938707D03D
:1019B800B3D4F402EFB0412297C7010093870730F0
:1019C8009043D443EFA01156EFB08163AA89939A4C
:1019D800040103D9218793DA0A016315090005690F
:1019E80013090980B7170040130770052380E7041F
:1019F800130780FA2380E704139B04010547096A4B
:101A08002389E704D14D014D814C135B0B01130A67
:101A18000A714A8597200020E78000EA330C554177
:101A2800420C135C0C4123992187630A0C14B307F9
:101A38009C0363D0070E050D420D135D0D01894708
:101A480063E9A70D63DA0C0A33059041931C05017D
:101A580093DC0C41C204C18063D78C0B0965130564
:101A680005713385AC02B717004013077005238052
:101A7800E704130780FA2380E7042396770323807B
:101A880007043345950242054181F2506254D2540D
:101A98004259B259225A925A025BF24B624CD24CCA
:101AA800424DB24D21618280B1E3B77489097D89C5
:101AB80093840480B3C4A4029167938707E8BE9413
:101AC800A167938707D0B3C4F402EFB0E11097C7BA
:101AD80001009387271FEDB597C701009387C71D9E
:101AE800856483A9070093848438D5B593090000D9
:101AF8009544F1BD3E8931BF3385AA40131C0501C9
:101B0800135C0C4181BF0965130505713305AC02EF
:101B18008DBF63FEAA003305654133054503A94718
:101B28003344650363C8870013150401B1BF330547
:101B3800AB40E5B76285EFB04140CE85EFB0C1104C
:101B4800EFB08139131D0501135D0D41B307A9419C
:101B5800C207C183631AF90093071900634480011F
:101B68009307F9FFC207C1831387FDFF937DF70F22
:101B7800CA8BE28CE3900DF82399F18675B701457D
:101B880029B741112A83014E930E407E130F001985
:101B9800930F400663EB6E0A93080019130340067F
:101BA800B3781503854E0D4FA14F337365020D8928
:101BB8001335150063E5BE0C1308F6FF79467298D5
:101BC8004208135808013307C70213D61700BE0787
:101BD80032976146B3F6C60213068070B386C60212
:101BE8003697A166F58F42075D8FB717004083C609
:101BF800F70293F60608A307D1000346F10083C64F
:101C0800F70293F60608E394C6FE8346F10093F6BE
:101C1800F60FF1DE930670052380D704930680FA49
:101C28002380D70423AA070383C6170393E606086D
:101C3800A388D702D8DB03C7170313670704A38851
:101C4800E70223800704410182807D133368E303A0
:101C58009308E016630E08003368F3039308D01660
:101C6800630808009378330093B818009388D8164F
:101C780033081E01131E0801135E0E0121BF639372
:101C8800E5030548638608000148630303002A88C2
:101C980071087298FD15131E0801C205135E0E0126
:101CA800C18109BF13F8150063F4BF007908D5B7DF
:101CB80013381800E5BF4111B7170040985F3AC6BE
:101CC800945F3247E39CE6FE3245410182809147AA
:101CD80063EEB70217C70100130747FF8A05BA95D5
:101CE8009C41BA978287B717004003A7470B134553
:101CF800F5FF698F23AAE70A03A7070B698F23A8B3
:101D0800E70A03A7070A798D23A0A70A8280B717D5
:101D1800004083A6470B1347F5FFF98E23AAD70A7D
:101D280083A6070B558D23A8A70A83A6070A758FD4
:101D380023A0E70A8280B717004003A7470B498F03
:101D480023AAE70A03A7070B1345F5FF45BFB717F3
:101D5800004083A6470B1347F5FF758F23AAE70AB0
:101D680003A7070A598D4DB7B717004003A7470BBC
:101D7800498FEDB7914763EEB70217C70100130704
:101D880027F68A05BA959C41BA978287B71700400B
:101D980003A7470D1345F5FF698F23AAE70C03A78F
:101DA800070D698F23A8E70C03A7070C798D23A0DB
:101DB800A70C8280B717004083A6470D1347F5FF8D
:101DC800F98E23AAD70C83A6070D558D23A8A70C37
:101DD80083A6070C758F23A0E70C8280B7170040F5
:101DE80003A7470D498F23AAE70C03A7070D13453F
:101DF800F5FF45BFB717004083A6470D1347F5FF0A
:101E0800758F23AAE70C03A7070C598D4DB7B71791
:101E1800004003A7470D498FEDB79357E50093F7A7
:101E28000730C98FC2070547C1836382E5048DC1A6
:101E38000947638DE5040D476380E50637170040C1
:101E4800231FF70883562709D58F2319F70882809F
:101E5800371700400356670993C6F7FFF18E231B17
:101E6800D7088326C70C558D2326A70CC1BF371763
:101E780000400356670993C6F7FFF18E231BD70866
:101E88008326870C558D2324A70C4DBF3717004098
:101E980083566709DD8EE1B7371700408356670917
:101EA800DD8EE9BF05E93717004093077005230069
:101EB800F704930780FA2300F70483570702C20741
:101EC800C18393F7F79FC207C1832310F70223004A
:101ED800070482800111B7F5070081463000B1057B
:101EE800194506CE97200020E780401DA24713978A
:101EF8002701634A0702B7170040130770052380BC
:101F0800E704130780FA2380E70403D7070213675F
:101F180007402390E70203D707021367072023909F
:101F2800E70223800704F240056182801DE5B717A8
:101F38000040130770052380E704130780FA238005
:101F4800E70403C7E70093C5F5FFF98D2387B700BA
:101F5800B71700402380070482808D471307000CC1
:101F680063E9C70097D70100938707C7B29703C7EC
:101F78000700B7170040930670052380D70493061F
:101F880080FA2380D70483C6E70093F6F6032387F5
:101F9800D70083C6E700D58DD98D4DBF37E700E060
:101FA8001C435443A183E206D58F1CC1FD5723204F
:101FB800F7182322F718828013178500B7E700E087
:101FC80023A0E710618123A2A7108280B7F700E061
:101FD800C8439C478280B7170040130770052380C9
:101FE800E704130780FA2380E70403C7670411E9AD
:101FF8001377D70F2383E704B7170040238007041C
:10200800828013672700FDB7CC41411106C632858F
:1020180003C6150083C5050022064D8E42068D6550
:102028004186138875A2630C060F6348C804138899
:1020380045A26306060B634AC800938535A2630967
:10204800B60623900600294679A0138855A263088E
:10205800060B938565A2E316B6FEC1451D4663ECE3
:10206800E5064546198E63F3C7003E862390C600F1
:1020780097C50100938505C989A8138895A26300AF
:10208800060F634E060B1388A5A2630A060F9385F5
:1020980005A5E318B6FA99451D4663EEE502198EC3
:1020A80063F3C7003E862390C6009385818031A8DC
:1020B8009D451D4663E1E5022146198E63F3C7007D
:1020C8003E862390C60093854187BA9597200020C5
:1020D800E780A0310146B240328541018280AD459A
:1020E8001D46E3EAE5FE3146198E63F3C7003E86D6
:1020F8002390C60097C50100938585C4F9B7B145FB
:102108001D46E3EAE5FC3546198E63F3C7003E86B3
:102118002390C60097C50100938585C37DB7C14547
:102128001D46E3EAE5FA4546198E63F3C7003E8685
:102138002390C60097C50100938505BE79B7C145B0
:102148001D46E3EAE5F84546198E63F3C7003E8667
:102158002390C60097C50100938585C0BDB7C145CA
:102168001D46E3EAE5F64546198E63F3C7003E8649
:102178002390C60097C50100938545BBB9B7B545FF
:102188001D46E3EAE5F43946198E63F3C7003E8637
:102198002390C60097C501009385C5B53DB797360E
:1021A80000209386A6D34146CD4517350020130558
:1021B800E5BF6F80C039797122D426D24AD04ECE7D
:1021C80052CC56CA06D613791500138401A7854444
:1021D8009389D187138AC187914A631009022254CF
:1021E800B25092540259F249624AD24A03C5F1DB0D
:1021F8000146854545616F203003B3779900A9C72B
:1022080083470A0003C7090023000400E58FD98F1C
:10221800A38EF1862312D4002301C400A300B400C6
:1022280099E12300540136C632C42EC2EF20604C17
:1022380083470400B2462246924593E7270008C424
:102248002300F40033499900860493F4F40F310411
:1022580069B7937715001387C1879DC78547B71658
:102268000040639EF50083A7860C93E7070123A42B
:10227800F60C834707005D8D238EA186828083A795
:10228800860CBD9B23A4F60CEDF583470700134588
:10229800F5FF7D8DD5B7011122CC26CA4AC84EC696
:1022A80052C406CEAE8993741500138901A705445C
:1022B800214A89E8F2406244D2444249B249224A5A
:1022C80005618280B3F7840089CFCE856396490182
:1022D8008345090093C5150022852300B900A18C08
:1022E8008D3F06041374F40F3109E1B7AA8711C9A9
:1022F80009CA81CA9307703E63E3C7006DBD85456F
:1023080059BF81453E85EDBFA14763EFB70297C628
:102318000100938626A61397250036971C43411182
:1023280006C6B69782879306803E154685457D3F4B
:10233800B2400145410182809306803E15469305CF
:102348002003F5B7893FEDB7014582803717004074
:102358008327070C411106C693E707012320F70CD2
:10236800814505450D3F8966938606F905468145F1
:1023780005459135B240238E01A64101828083C76D
:10238800C1A76397070E411126C2938401A783C78B
:10239800040006C622C44AC0898B6381070CEF205B
:1023A800403590442A896361C50C03C701A7937718
:1023B800170003C421A7BDCF9307803E818F799B67
:1023C80081450545139407012388E1A6593583C63D
:1023D80001A793F7460041808DE303C711A7930730
:1023E800F00F630CF7007D171377F70FA388E1A6AA
:1023F80009E793C626002388D1A683C70400898BE2
:10240800B1C383D741A7B38787021306803EB3D7EA
:10241800C70213960701CA97418223ACF1A61DCEC5
:102428002244B2409244024903C5F1DB854541018B
:102438006F20805F13671700854505452388E1A64F
:10244800093D65BF1384D187834504000545858907
:10245800653D83470400F99BA38EF186B240224470
:102468009244024941018280098E4206418245BF59
:102478008280411106C6EFF02FA7BD4763F4A7007D
:10248800EFF08FA6EFF02FCDBD4763F4A700EFF074
:102498008FCCB24083D5218703D5018741016F20B6
:1024A800607F411193962500AA852D4506C6972081
:1024B8000020E780A0C0B24001454101828041115F
:1024C80022C426C24AC02A842E89B284AA859306C9
:1024D80000200146254506C697200020E78000BE5B
:1024E800931629002686A285294597200020E78093
:1024F800E0BCB24022449244024901454101828035
:10250800011122CC06CE3714004026CA4AC84EC64E
:1025180052C483447405034AB405834984050349B6
:102528009405EFF04F958347A40593F4F40F137ABD
:10253800FA0F93E71700230DF40493F9F90F1379B1
:10254800F90FB717004003C7A705058B6DFF03D523
:10255800C705A38D4705238C3705A38C2705A38BB7
:102568009704F2406244D2444249B249224A056182
:10257800828041119397050122C406C6C1872E8423
:1025880063DA0700EF10507019C1EF105069216528
:10259800218D39A093F7150081CBD533134514004D
:1025A800B2402244410182809397250163D00702FB
:1025B800EF40B1277D3D37F60200130606E0896536
:1025C80003C5F1DBEF2040460965D9B7939715019C
:1025D8000145E3D707FC13060064916503C5F1DBE9
:1025E800EF20804411656DB71D71494697B501000C
:1025F8009385857A17C501001305452386CEEF20FC
:10260800600911E101A037F700E0F9575CC7FD57F1
:102618001CCB8566B7E700E023A0D710130670101F
:1026280010C3B8434146B0C323A0D718B8C30100AC
:1026380001001306C00381454808EF10907F9737C3
:102648000020938767733ECA896793870780231C96
:10265800F100ED47A301F102930750102312F10294
:102668008146D1470146814521452303F102972040
:102678000020E780A0A4A167938707E03ECE9707D4
:102688000000938747E2BEC497070000938767E37B
:10269800BEC685472304F102B5472308F102970710
:1026A80000009387E7923EDA97070000938787E553
:1026B8003EDE97070000938707DCBEC0B7F507002A
:1026C8009307D002A303F10281469707000093877E
:1026D800470F7000E10519453EDC97200020E78090
:1026E800E09D58088147994670003E9603460600CB
:1026F80085070507A30AC700E398D7FED24791C705
:102708000357810185676373F70001A04808EF202C
:10271800A06911C101A0F640256182804111170509
:102728000000130545E506C622C4EF202065138482
:10273800F1DB2300A4002D281D2A093903450400D4
:102748002244B24037F60200130606E089654101CB
:102758006F20802DB7170040130770052380E7040A
:10276800130780FA2380E704C8DB23A001DC8280FA
:10277800411106C6B7170040130770052380E70408
:10278800130780FA2380E70403C7F7021377A70F1C
:10279800A387E70203C7F70213672700A387E702A7
:1027A800C9391305407E814701478146054685455D
:1027B800EFF02FBDB240014541016F205007B71718
:1027C800004083A7470C93F70708C5C3011122CC23
:1027D8002A84680006CEEFF06FFCEFF0CFCD636778
:1027E800A4003305A440F54763EAA7003245EFF09B
:1027F800AFFC0945F2406244056182802285993F19
:102808003245EFF06FFB938701DC9C430D45FDF3E8
:10281800694597100020E780A01D6800EFF00FF8C9
:10282800EFF06FC92A843245EFF00FF91305D4028F
:10283800B707C0A863F7A700370540571305D502A7
:102848002295093F0146C1450145EFF02FEE97104B
:102858000020E780000B0146C1450545EFF00FED6C
:102868000545EFE0DFE5014571B709458280B717F7
:102878000040130770052380E704130780FA2380BC
:10288800E70403C7E700136787002387E70003C748
:10289800170313670702A388E70223800704370793
:1028A8000010B7E700E023A0E710828083C7F18714
:1028B800014591C703C551DC791513351500828090
:1028C800411122C426C24AC006C6AA842E891544CC
:1028D80085464A86A6851305000BEF0050446346DB
:1028E800A0007D141374F40F65F4B240224492449E
:1028F80002494101828001119305F100054506CE88
:10290800A3070100753F0345F100F2400D810589D9
:1029180005618280411122C426C24AC006C6AA8423
:102928002E8915444A86A6851305000BEF00303B17
:102938006346A0007D141374F40F6DF4B240224472
:102948009244024941018280011122CC26CA4AC818
:10295800AE842A893284AA851306F10085461305B8
:10296800000B06CEA3070100EF00703B0346F10001
:10297800CA851305000B658E418EA307C100EF00C1
:102988001036F2406244D2444249014505618280D2
:10299800411122C4371400408327C40C06C685455C
:1029A80093E707082326F40C13050008EFF08FBC03
:1029B8008327C40C370740008D45D98F2326F40C94
:1029C80037054000EFF00FBB094597100020E7805E
:1029D8006030370540008545EFF0CFB92244B2405A
:1029E80009454101171300206700C32E8545254579
:1029F80015B701119305F1001305F003A38201DC5B
:102A080006CE22CC26CAA30701005D3D8347F1000C
:102A1800BD8BB1CB29476388E70489452545DD3D52
:102A28000D44A9449305F1001305F003513D834774
:102A3800F100BD8B8DCB638897027D140545137417
:102A4800F40F97100020E780E02869FC13060004C3
:102A58009305F00B13054004C53D01469305F00BA3
:102A680013054004D53583C541DC93E505010D45C3
:102A78002382B1DC4535F2406244238F0186D2447B
:102A880001450561828001119305F100094506CED3
:102A9800A30701003535F2400561828001119305D5
:102AA800F100094506CEA3070100193DD1451305DC
:102AB80090048D359307F0039305F0030D452382A9
:102AC800F1DC893DF24005618280411106C6153767
:102AD80021469305700F13053004BD354146930513
:102AE800F00E1305D0028D35130600029305F00D84
:102AF8001305D002913D0D469305000F1305D00232
:102B0800A13581451305E00231354146BD45130520
:102B1800F0021D3D9305000813050003E53B094637
:102B28009305000F1305F0020535814513051003C1
:102B3800D53301469305700F130530043135B24083
:102B4800014541018280411106C6A38201DC553549
:102B580009469305C00F13054004FD33930540054E
:102B68001D454D3B05469305C00F2145F13BB2403D
:102B78000145410182800111FD5722CC26CA06CEAB
:102B880023070100A307F100154485449305E100DC
:102B980001453D331375F50F63EBA4028347E1004C
:102BA8009DE79305F10013054006193B1375F50FD2
:102BB80063E9A4008347F100054593F7170463838D
:102BC80097000145F2406244D244056182807D1439
:102BD80009451374F40F97100020E780A00F5DF4E7
:102BE800CDB701119305E1000945238F018606CE73
:102BF80022CC26CA23070100A3070100D13183474D
:102C0800E10003C70188C18BD98F85EB054403C751
:102C180051DC8947630AF70083C541DC93E5050168
:102C28000D452382B1DCFD312285F240624485479F
:102C3800238FF186D2440561828003C4F1878547DA
:102C4800E316F4FC4D3979F103C751DC8947E31FDA
:102C5800F7FA83D54181138581DC97100020E7803E
:102C6800400C93140501C18081CCA686138681DCB3
:102C7800930520031305000B97100020E780601AC6
:102C88009305F1001305F003253983D7418163E6E5
:102C9800F4008347F100BD8B99EF83C541DC93E5D0
:102CA80005010D452382B1DC0144AD31A38F0186B6
:102CB80023800188A9BF813119ED03C751DC8947F9
:102CC800631BF7008547914503C521822380F1885E
:102CD800EF10B0222DBF2380018815BF0111854751
:102CE80006CEA38FF18622CC26CA138441DC113389
:102CF800834504000D4593E505012382B1DC1939AC
:102D08005933894705469305C00F2145A382F1DC55
:102D18002539E939A3070100F93E3DC503C751DC50
:102D28008947631EF702834504000D4593F5F50EA8
:102D38002382B1DCC536B717004013070008239F6C
:102D4800E708894513050008EFF02F8DB7E700E085
:102D58003707040023A0E7108547238FF186F24048
:102D68006244D2440561828079364DF903C751DC4B
:102D78008947E316F7FE8547914503C521822380DD
:102D8800F188EF10901759BF03C751DC8947E31842
:102D9800F7FC83D54181138581DC97100020E780FB
:102DA80040F893140501C18081CCA686138681DC86
:102DB800930520031305000B97100020E780600699
:102DC8009305F1001305F003E53C83D7418163E6E1
:102DD800F4008347F100BD8BC1FB834504000D451A
:102DE80093E505012382B1DC3536A38F01863DB713
:102DF8000111914709469305C00F214506CEA382CC
:102E0800F1DCA307010089361306F00793050008D3
:102E180075451D3E930560037945EFF0BFAFD13E80
:102E280021469305700F6145053613060008930582
:102E3800F0077545113E9305F1002145EFF05FA8B5
:102E480011469305B00F2145EFF01FB091457D4520
:102E5800EFF05FACD14513050002EFF0BFABC945F9
:102E680013052002EFF01FAB5136F2400561828056
:102E7800011126CA4AC8AE842A899305E1001305C0
:102E8800F00306CE22CCEFF0BFA38347E100014553
:102E9800BD8BC1E39305F10013055002A3070100A0
:102EA800EFF01FA28347F1009305F10013056002BC
:102EB80013948700EFF0DFA08347F100C18F89CB1F
:102EC80037E70500130707C0B347F702C207C183F6
:102ED8002310F9009305F10013057002EFF05F9ECF
:102EE8008347F1009305F1001305800213948700CE
:102EF800EFF01F9D8347F100C18F89CB37E70500AD
:102F0800130707C0B347F702C207C1832390F40031
:102F18000545F2406244D24442490561828041112C
:102F280021469305700F1305300406C6EFF0DFA1A4
:102F3800B24009469305D00F1305200541016FF0F3
:102F4800BFA001119305E1001305500506CE230724
:102F58000100EFF0FF969305F10013057005EFF0FF
:102F68003F9601469305700F13053004EFF0DF9D7F
:102F78000345F1008347E100F24011858A070D8976
:102F88005D8D85679387477D3305F5020561298146
:102F98008280938781309443938701319C4363DE19
:102FA800F60419473387E602938781FCB1453E97BB
:102FB80003564700034717003306B60223A6C1305D
:102FC80009CB0D661306A6AA3307C70221832394EB
:102FD800E1881947B386E6020545B69703C7070097
:102FE80083C72700238CE18013877181034707007B
:102FF800238BE180A38BF180828023A601300145D9
:1030080082809387013198439307F00763C3E702EF
:1030180099473308F702938781FC0507C2972380F5
:10302800A700A380B7002381C7002392D70023A855
:10303800E1308280411106C62381018823A801302E
:1030480023A40130A3800188EFF0BF9AB240930611
:10305800006415468145054541016FF02FA94111CE
:1030680006C683C7318885C76133930780FC41460C
:103078009305000403C52182A386F18AEF10D01AB4
:10308800A3810188B24003C5013141018280113713
:1030980019C9EFF01F9623A2018823A60188238B64
:1030A80001802D39C5B77937F1BF81472546A94633
:1030B80003070500130707FD9375F70F6367B6004D
:1030C800B387D7020505BA97E5B73E85828079713F
:1030D80022D406D626D24AD04ECE2947AA8703C480
:1030E80001896306E500130700026313E510938462
:1030F800812C338784002300070029470545638B0B
:10310800E70283C704003D479387D7FB93F7F70F80
:10311800636FF70017B70100130747C98A07BA9703
:103128009C43BA97828785476313F4002137238825
:1031380001880145B250225492540259F24945611E
:1031480082808547E315F4FEA3808188CDB7930577
:1031580040041385812CEFA04118AA8969D92694C7
:10316800E37785FC930560041385812CEFA0E116B5
:103178002A8919C1E37D85FA238009001385912CDA
:103188002D372A84138519000D37AA868145630ACD
:1031980009002AC623000900130519003937B24669
:1031A800AA85038704001306B00413053005630AD3
:1031B800C70013062005130500026314C700130592
:1031C80060041307400622866354870013064006EE
:1031D8001307F00F3306E602130740063346E602EC
:1031E8000D35B1B78547E314F4F4A381818881B71D
:1031F8001307E0030145E36F87F21387812C2297B9
:1032080005042300F700238881882DB741118D45D7
:10321800096506C6EFE01FB6B2408D450565410158
:103228006FE05FB5B717004083A6870C056709668E
:10323800D98E23A4D70C83A6070CD98E23A0D70C2C
:1032480083A6870CD18E23A4D70C010083A6470C34
:1032580013963601634406000145828083A6C70C95
:10326800D98E23A6D70C010083A6470C13963601E6
:10327800E34406FE83A6C70C558F23A6E70C01007E
:1032880005458280B717004083A6C70C8965CD8E97
:1032980023A6D70C010003A6C70C8566558E23A666
:1032A800C70C03A6070C558E23A0C70C010003A763
:1032B800870C4D8F23A4E70C010003A7870C558FBB
:1032C80023A4E70C01008280B717004003A7C70CAE
:1032D8008966558F23A6E70C010003A6C70C8565F0
:1032E8004D8E23A6C70C03A7070C4D8F23A0E70C10
:1032F80001000100010003A7870C558F23A4E70CE8
:1033080001000100010001000100010001000100AD
:10331800010003A7C70C558F23A6E70C0100828084
:10332800B717004003A7C70C8966558F23A6E70C7B
:10333800010003A6870C85654D8E23A4C70C03A73F
:10334800070C4D8F23A0E70C01000100010003A723
:10335800870C558F23A4E70C010001000100010030
:103368000100010001000100010003A7C70C558FEF
:1033780023A6E70C01008280B717004083A6C70C7C
:103388000967D98E23A6D70C0100010001000100AE
:103398000100010001000100010083A6870C7D7671
:1033A8007D16D98E23A4D70C83A6070CF18E23A0F3
:1033B800D70C01000100010001000100010001001B
:1033C8000100010083A6470C1396360183A6C70C9B
:1033D800558F23A6E70C63540600014582800545F6
:1033E8008280371700408327870C8326070C0566E1
:1033F800F975D18E75782320D70CFD152547B7169A
:1034080000407D18856809637D171377F70F33F639
:10341800B70001EB01000100B717004023A4C70C57
:103428008280131E850123A4C60C135E8E41B3F758
:10343800070163540E00B367160123A4F60C0605B2
:10344800B3E767001375F50F23A4F60C75BF37179C
:1034580000408327870C0566D18F2324F70C832629
:10346800070CD18E2320D70C0100010001000100B8
:10347800010001008326070C7D767D16F18E23203E
:10348800D70CF97625470145FD16371600408965A2
:103498007D171377F70FF58F11E7371700402324AF
:1034A800F70C828006052324F60C1375F50F01002E
:1034B80001000100010001000100010001000100FC
:1034C800010001000100CD8F2324F60C0328460CCF
:1034D80093183801E3DE08FA1365150055BF01118A
:1034E80022CC26CA4AC806CE2A89AE8432841D3B1D
:1034F80001C94A85FD35493511E92AC66133324586
:10350800F2406244D2444249056182802685D13D19
:10351800A5352285F9358D35B5330545D5B799EAF1
:10352800014582800145B250225492540259F24911
:1035380045618280797122D426D24AD04ECE06D6F1
:103548002A84AE89B2843689F13969DD2285513DF4
:10355800253509E52AC63D333245F1B74E85513543
:10356800213DC931130514001375F50F1304F9FF34
:103578008D3D1374F40F0935269463199400C13DE9
:103588002300A400713BFD394A8571BF8504C1350C
:10359800A38FA4FE153BD5B79387C1899C4301111E
:1035A80006CE91C38297EFE08F8F9387018A9C4361
:1035B80081C72AC68297324583D7C1816372F504D1
:1035C80003D7E1816371A7049386818903A3060069
:1035D80063050300F240056102838507998F198D01
:1035E80065473305E502C207C18389831387F7FF5F
:1035F8003A953345F5021375F50FF240056182805F
:1036080013054006DDBF0145CDBF03A845004111A4
:1036180026C206C622C48347180003480800A944E6
:10362800A207B3E70701C2070D68C18713082890EE
:103638006396070385473284EF50C03AAA8419ED90
:10364800938741899C4399CB0345140003470400A1
:103658002205598D1335150005058297B24022447D
:1036680026859244410182802D4531EBD841294578
:103678008347170003470700A207D98FC2070D67C2
:10368800C187130797A1639CE702411122C426C290
:1036980006C6B6843284093783C791816374F500FE
:1036A800A38CA18085472390F40083C791812300D0
:1036B800F400B24022449244014541018280828054
:1036C80041654111938501A87D1506C622C4EF60A6
:1036D800F072972600209386268541469145172546
:1036E800002013056580EF6090662A8481451305E4
:1036F8000020EFE0CFDD01458D45EFD09FF5B717EE
:1037080000403547238CE7042285B240224441011A
:103718008280011122CC06CE26CA4AC883C88500F9
:10372800214493F808026391080603C305008948F9
:10373800B2846312130703A845008347180003489F
:103748000800A207B3E70701C2070D68C18713087D
:10375800289063840701014405A885472A89EF500A
:1037680060282A8415E19387418A98436DD783C7D7
:10377800140083C604004C00A207D58FB337F000AD
:1037880085073EC24A8502972285F2406244D244A8
:1037980042490561828003D7A5009727002083D777
:1037A8000780E31AF7FA9387418A9C43CDD70D47E0
:1037B8003AC22316D10032C44C00829769BF411126
:1037C80022C406C683C785002144C18B95EF03C870
:1037D8000500894701446319F802D8418347170057
:1037E80003470700A207D98FC2070D67C1871307D0
:1037F8002790639BE700CC45328523900601094654
:1038080097100020E78060BE2285B2402244410123
:10381800828041677917630CE502411122C406C60C
:1038280085472A84639AF50022852244B24093850D
:1038380001A941016F60905C89476396F500854551
:10384800EF80707475D1B240224441018280828039
:10385800411122C42A844165938501A97D1506C6B4
:10386800EF60D059170500001305E5FAEF8070697D
:1038780097160020938606744146A1451715002027
:103888001305456BEF60B04CB24023A2818A2244F5
:10389800410182804111938501A906C6EF50400F6E
:1038A800B2407D151335150041018280411122C4B3
:1038B8002E84938501A926C206C6AA84EF50400D1E
:1038C800058915C1971700209387C76683D7A70274
:1038D800A285B2402310F400224426859244014672
:1038E80041016F50D067B24022449244494541019A
:1038F800828003C5118B83C7218B1D8D1375F5033A
:10390800828001114AC84EC606CE22CC26CA52C4AD
:10391800AA892E89F93F930700043385A7401375B8
:10392800F50F19E1130500046365A9007D151379E6
:10393800F50F83C7118B33842701138A413513741C
:10394800F40F1307F00333854701636787024A863C
:10395800CE8597100020E78040A9A388818A624419
:10396800F240D2444249B249224A03C5318209464B
:10397800C14505616F10400B930400049D8C93F4BE
:10398800F40F2686CE8597100020E78000A6330620
:103998009940B38599005285130404FC97100020C0
:1039A800E780A0A41374F40F4DBF91C199BF828022
:1039B80039719397050122DC06DE26DA4AD84ED6FD
:1039C80052D456D2C1872E8463DD070A03C52182EB
:1039D800EF00902B2A8A2DC18349050063860904CC
:1039E80003C7F18A83C7018B998F93F7F70399E38C
:1039F8009307000463E5F900FD1793F9F70FB30483
:103A08003701938A413193F4F40F9307F003330598
:103A1800570193051A0063EC97024E869710002011
:103A2800E780A09CA387918A5285EF00501F8545A7
:103A380003C52182EF00704C2165218DF25062543C
:103A4800D2544259B259225A925A2161828013099A
:103A580000043309E9401379F90F4A8697100020CA
:103A6800E780A0989305190033862941D295568599
:103A7800938404FC97100020E780209793F4F40FB8
:103A880055B793F71500A9CB9384F18A138941316F
:103A980003C7040083C7018B1D8F1377F70315CB6A
:103AA8003307F90003050700850793F7F703238811
:103AB800F18AEFF0CFE169DD0946894503C5218226
:103AC800EF0090762946854503C52182EF00D07521
:103AD800C1B7134514009DB793F725009DCFEFF0AC
:103AE8000FD8AA842A8697B50100938565B508087A
:103AF800EF90617A89C8930600641306401F8145D8
:103B08000545EFE0AFFE0808EF90C17E9375F50F0D
:103B18000808613D1345240015B793F7450085C78C
:103B2800EFF02F8C11ED954517B50100130505B27F
:103B3800C93B93060064154681450545EFE00FFB38
:103B480013454400E5BD93F70502D9CB0146C145AD
:103B58000145EFE0AFBDB717004013070003238806
:103B6800E7020808EFE08FC3EFE0EF94AA8442452C
:103B7800EFE08FC421652695B707C0A863F5A700B5
:103B8800378540572695EFE0FFBCB717004013076D
:103B980070052380E704130780FA2380E70403C72E
:103BA80017030146A14513670702A388E70223808C
:103BB800070437070010B7E700E023A0E710054522
:103BC800EFE0CFB61305500297000020E78040F9D8
:103BD800014597000020E78020EE13450402B9BD97
:103BE80093F70504BDCF03C7D18A9307800C6318E8
:103BF800F700B14517B501001305C5A5193383C7EB
:103C0800D18AFD1793F7F70FA386F18AA1C7930509
:103C1800E1006800EFF0CFA519E9414693050004DB
:103C280003C52182EF0050601345040401BD83568B
:103C3800E1000356C10097B501009385A5A20808C5
:103C4800EF9061650808EF90E16A9375F50F080831
:103C5800A93BD9BFE94517B501001305E5A15531C1
:103C6800E1B793F705080145E38A07DC83C7E18AD2
:103C7800A1CB83C7C18A99C705476383E702134568
:103C880004086DBBEFF0AFA9130600029305000806
:103C980003C52182EF00505985472386F18AC5B7AD
:103CA800EFF02FAA05662395A18A130606C8930587
:103CB800000803C52182EF0030572386018AC1B767
:103CC800EFF02FA86DBF797122D44ECE2EC606D63E
:103CD80026D24AD052CCAA89EFF0BFC1B24513F41C
:103CE800F50F63E4A5001374F50F1DC483C7218B7A
:103CF800B3848700138A413593F4F40F1307F00354
:103D0800B38547016363970222864E85970000209A
:103D1800E780A06D2389918A2285B250225492545B
:103D28000259F249624A4561828013090004330945
:103D3800F9401379F90F4A864E8597000020E780ED
:103D4800C06A33062441D28533852901938404FC53
:103D580097000020E780606993F4F40F65BF2DC9D0
:103D6800411106C6EFE09FB405E9EFE07FC2EFE03E
:103D78009FE039C5B94517B501001305258AEFF04D
:103D88005FB8EFE0BFD1EFE05FD4EFE0DFDB0146E3
:103D9800C1450545EFE08F998145054593060064C7
:103DA8001546EFE0AFD48547B2402387F18A2386D2
:103DB800018A03C521829305000841016F00F013B1
:103DC800C94517B5010013056586EFF09FB3E9B73C
:103DD80089662387018A938606F905468145054544
:103DE8006FE0CFD04111170500001305A5BC06C62A
:103DF800EF00D0782381A182EFF04FC1EFE05FB9E7
:103E0800EFE07FD71DC1B94517B50100130505813E
:103E1800EFF03FAFB7170040130720FDA381E70479
:103E2800B240054541016FE00F9BC94517A5010048
:103E38001305C57FF1BF828083D7C18C6398A70023
:103E48002397B18C2398C18C2399D18C82809C4173
:103E580009476386E7000D476389E70082800946C2
:103E6800C14503C531826F00303C41114AC003D9B6
:103E7800850022C426C21375F90F050506C62E84CF
:103E8800E923AA840DC5230025014C40035684006C
:103E9800050597000020E78040552244B2400249BA
:103EA800A685924403C5218241016F008064B24017
:103EB800224492440249410182800111C16706CE21
:103EC8001387C18CF9171CC323220700930500052B
:103ED8000D45EF20207A930500051145EF208079E4
:103EE80085659385052C0145EF20C0788547130625
:103EF800F100854513055030A307F100EF703157E5
:103F0800F2400561828001119397050122CC06CE0B
:103F180026CA4AC84EC6C1872E8463D0070203C585
:103F280031829D2311C1E5292165218DF24062442A
:103F3800D2444249B2490561828093F7150091CF76
:103F4800171600201306860B9385C18B03C5318293
:103F5800EF70D12A13451400D1BF93F7850085C3AC
:103F680083C7318213074006814613060002C14504
:103F780003D5C18CEF70F1211345840045BF93F739
:103F880005010145C5D79387418284430549638963
:103F9800240181C48D4963F4990A1345040179B752
:103FA80003D5C18CEFF01F8F6DD903D5C18CEF10ED
:103FB800805B9305D5FFC205C181239AB18C138517
:103FC80001AA93F5F50FEFF01FD0131605014182F2
:103FD800239AC18C79D201478146ED4503D5C18C1E
:103FE8002393C18CEF40C05623A4A18C630F05080E
:103FF80003D6618C938501AA97000020E780E03EF4
:1040080001469385418C03D5C18CEFF03F8A11C9D5
:104018008D4723A2F182ED451385418CEF40006B5B
:1040280001A823A29182239A018CEFF09F8C35D5A9
:104038000946C14503C53182EF00101FB9BF03D639
:10404800418D01478146ED4503D5C18C2393C18C31
:10405800EF40005023A4A18C0DC903D6618C938531
:1040680001AA97000020E780403801469385418CDB
:1040780003D5C18CEFF09F8301C523A2318361BFB3
:1040880023A22183239A018C65B7894723A2F18251
:1040980045B7011106CE0D476301E50811476304D2
:1040A800E5020947631EE50003C725009947631920
:1040B800F70003D7450083D7C18C6313F700F53B9E
:1040C800F2400561828003C725009547E31AF7FE91
:1040D800C16703D7C18CF91703D5A5006308F7009A
:1040E800EF70F15D0545EFF09FC7D9BF2396A18C0E
:1040F80083D7E5000966130606902397F18C83D7CA
:10410800050103C531822398F18C83D72501A14588
:104118002399F18CEF005011F1B783C7250011479F
:10412800639AE70293050064EF20C0549305006486
:104138001145EF20205481450145EF20A0538547C4
:104148001306F100854513055030A307F100EF7001
:104158001132BDB71947E395E7F603D7450083D772
:10416800C18C6314F700EFF05FD50145ADBF7971DD
:1041780017050000130565D906D622D426D2EF000C
:10418800F03FA381A182171500201305E5EA02C8B4
:10419800230A0100EF900116631A051CB7F5070002
:1041A80081463008E105194597000020E78000F1B5
:1041B80083478101254613D7470093060703637495
:1041C800E600930677032308D100BD8BA546138725
:1041D800070363F4F6001387770383479101A30865
:1041E800E100254613D74700930677036364E6008A
:1041F800930607032309D100BD8BA54613877703D0
:1042080063E4F6001387070311460C08171500200E
:104218001305D5E1A309E100EF80917C83570101E3
:10422800594417170020231AF7DE8357210117175F
:1042380000202315F7DE994785442317F10013065C
:10424800D1009307803E854513055030231CF100AB
:10425800A3069100EF70B12117160020130686DE21
:10426800ED4513057030EF7091209375F40F171614
:104278000020130666D913056030EF70511F13062E
:10428800E100894513051031EF70711E300889452A
:1042980013052031EF70B11D17160020130646D8FC
:1042A800D5450145EF30D066930500050D45EF2053
:1042B800603C930500051145EF20C03B856593855B
:1042C800052C0145EF20003B9305C0030545EF2071
:1042D800603A3008914513057040A3059100230604
:1042E8009100A306910002CC23070100EF60A1759D
:1042F8001306B100854513050040EF60C1747000D6
:10430800854513051040EF6001741306E1008545EB
:1043180013052040EF6021731306D100854513056E
:104328005040EF6041727D55EF30F06B7D55EF6086
:10433800C029EFD0DFE617050000130585B1EFF0BF
:104348002FD1EFF0EFB7C167F9171385418B23A67B
:10435800F18C23A8018CEF50310B854503C53182C0
:10436800692EB2502254925445618280AD472A8406
:104378006313F50029449307F0052286971500205A
:10438800938585CB17150020130515CA171700202C
:10439800230CF7C817170020A30EF7C6EF80516447
:1043A800228629041374F40F971500209385C5C835
:1043B80017150020130525C6EF8091629717002076
:1043C800A38587C4110485BD4111014506C6EFD0F8
:1043D8007FAD1305800497F0FF1FE7806078814563
:1043E80013050020EFD0BF8EEFE00FA0EFE00FB372
:1043F800EF70312FEFF0BFD7EFF0DF9E970000206E
:10440800E78080BF23AC05FE1C4181E70CC1828098
:10441800BA8703A787FF6DFF23ACB7FE82801DC153
:104428008346E5FF1307F00F9147639EE6004111AD
:1044380006C697100020E780608DB24081473E8510
:104448004101828095473E85828001E9014582804D
:104458000145B240224441018280411122C42A848C
:10446800210542059305D004418106C69700002026
:10447800E780007E71DDFD572320050023128500AB
:104488002303F5002105F1B71387818D1C434111E2
:1044980022C426C24AC006C601440149BA8491E72B
:1044A800A165EF00A06E0DC401A803C7E7FF63185C
:1044B800A7021DC8A16591249840832784FF63172C
:1044C800E40223ACF18CFD57232C04FE230FF4FEE9
:1044D8002285B2402244924402494101828011E07F
:1044E8003E8983A787FF65BF3E84E5BF232CF9FE7D
:1044F800D9BFB9C5411122C406C62A8483C711AFE2
:104508002E856368F400213F0D45B24022444101E5
:10451800828083A785FF99E703C7E5FF9307F00F1C
:104528006305F700ED3D1545CDB7238F85FE13854F
:10453800818DC93D22852244B240A165410175AAF9
:104548001545828023AC018C82809387418F9C43E0
:1045580099E33E85828003D727006316B70003C717
:104568000700E308A7FEDC47E5B74111939705016B
:104578004AC006C622C426C2C1872E8963DE070048
:10458800213711C1693D21653345A900B240224454
:104598009244024941018280AA860145E5D9014435
:1045A8003D47B3578940858B95CB9387418E84438C
:1045B800BD4791E28147A2978E070545BE94331502
:1045C8008500131405019C40C8404180829723A0B0
:1045D800040023A20400334524014DBF0504E3125F
:1045E800E4FC0144CDBF938741AB9C53411122C4E5
:1045F80006C61384818295C7829723A4A1820840A6
:10460800B74703009387D73F3305F502B7A72600BE
:10461800938737ECB24022443E9523A4A1824101FE
:104628008280938701AF18409C4BBA9723A4F182EC
:10463800F9B72A9609E582800505A30FB5FEE31DA3
:10464800C5FED5BF81473307F5000307070019E307
:104658003E8582808507C5BF01112E8626CAAA8499
:10466800131506019305F004418122CC06CE32C60B
:1046780097000020E780C05D2A8419C53246A685C8
:1046880097000020E78060D62285F2406244D24439
:104698000561828081476314F600054582803307EF
:1046A800F5008507B386F5000347070083C6F6FFC4
:1046B800E383E6FE014582809307F6FFBE952A96BE
:1046C8006313C5008280FD1583C715000505A30F78
:1046D800F5FEFDB7814711E9014582803307F500F2
:1046E80003470700E31AB7FE8507E319F6FE0545F9
:1046F8008280938701AF884B828083C711AF637F25
:10470800F5001387C18D9317150008433E9583570D
:104718000500DD8D2310B500014582800D4582809E
:1047280079714ECE06D622D426D24AD052CC56CA59
:104738005AC883C771CF9389C1CEB5C383C731CF58
:10474800B9EFA38B01CE03C461CF8947631EF40878
:104758009387C1C3B8433E8483467700A9C2034602
:104768005700B755550037C5898E9385555513059C
:1047780065EDEF20A16603C731CF9307D7FF93F705
:10478800D70F91E7238BE1CE8547A38BF1CE8947DD
:10479800A389F1CE3C40130710FA2383E7009387DF
:1047A800018F9C4385CB82972A8A0DC5938401AFDC
:1047B8009C48138941AB814AAA9723A0F1B0FD57C1
:1047C80023AEF1AE9387418F804351E88327490296
:1047D800639B070EB250225492540259F249624A1E
:1047E800D24A424B456182808D47631AF402938412
:1047F800C1C3BC4403C777005DD303C65700B75590
:10480800550037C5898E93855555130565EDEF20FD
:10481800E15CA38981CEBC44130710FBBDBF95475B
:10482800E31FF4F6138741D283476701918BA5DB19
:1048380083C781D0858B03C671D283C661D289CFE5
:10484800484319C9834515000905EF20911C21D952
:104858008547A38BF1CEA1B781450145FDB7184423
:1048680081476374EA00B3074741032749021CC420
:1048780011C7D84463F4E70023AEF1AE8DEB83553E
:10488800240099ED5C44639D0A0223AAF18E032B50
:10489800C400228597000020E78040475A8435B736
:1048A80003450400EFF07FE55C4081CB1CC48357CF
:1048B8002400E9DBA28A404409BF1C44E1D7C5BFF4
:1048C80023A6FA00E9B79387C18D904383C611AF39
:1048D800814713F7F70F636FD70683C779000D4732
:1048E800F91793F7F70FE377F7EE83C781D3918B27
:1048F800E39207EE6800EFC0B0037D576304E50C50
:10490800B24703C471ACE377F4ECC44483C781AC09
:104918006380E406858BB9C7D147B384F402E37B8F
:1049280094EA97000020E780C0CAB24763F3F40016
:10493800A68703C471AC818F3384A700830749011C
:1049480063CE0702B707C0A8636AF402B7074057E7
:104958003E942DA085071397170032970357E7FF5A
:104968002DDB8DBD93079002B384F402858045BF8B
:10497800E207E18763D007043304854003D5218E1D
:1049880097000020E78060A483274902228519E068
:104998003705C0A882971375F50FE31D05E283A7B5
:1049A8008901E38907E2EF206137EF208179EF2061
:1049B800C12B0DB5E37285FCB707C0A833848740C7
:1049C8002A946DBFDC44E387A7E003474901058BC0
:1049D8000DC351443384870283C771ACE3FC87DE7F
:1049E80097000020E780E0BE83C771AC1D8C2A9435
:1049F800B1B713049002338487020580F1BF83C7DF
:104A080011AF6371F5021387C18D93171500084321
:104A180093C5F5FF3E9583570500FD8D2310B5001E
:104A2800014582800D45828083C711AF6364F5001C
:104A380001458280411122C426C24AC006C62A8482
:104A48002E89B284EFF07FB001C504C505451DA0CD
:104A5800936504F0C205C181414597000020E780B5
:104A6800201F19ED938741AB9C5B81C7A285114537
:104A780082970145B2402244924402494101828012
:104A88009387418F9C438DE323AAA18E85472326D4
:104A9800050004C52311250123008500A300F500A6
:104AA8002322050065B7BA87D84775FFC8C7F9BF7D
:104AB80045C539715AD0138B418E22DC26DA4AD883
:104AC8004ED652D45ECE66CA6AC86EC606DE56D2C6
:104AD80062CC3689328AAE89AA8401445A8DB94D8E
:104AE800854BF94C03270B00131C3400937AF40F01
:104AF80062971C43A9EF13B5FA0013451500B39745
:104B08008B0063F65D01930714FFB397FB00939541
:104B18000701C1815286093F1DC983270D00014540
:104B2800E29784C323A237016304090023005901D3
:104B3800F2506254D2544259B259225A925A025BE4
:104B4800F24B624CD24C424DB24D21618280050439
:104B5800E31A94F92145E9BF09458280411122C42D
:104B680026C24AC006C6AA842E893284753DCA85E3
:104B78002685EFF09F9D09C940C10145B2402244F6
:104B880092440249410182802145CDBF411122C48E
:104B980026C24AC006C6AA842E89EFF01F9B2A8423
:104BA80019C123110500CA852685913D014511E0EB
:104BB8001945B24022449244024941018280754716
:104BC800636BA7041387418E1443411126C29314C3
:104BD8003500A696944222C406C6AA873A84094597
:104BE80095C613B5F7003947134515006373F700E9
:104BF800C5178545B395F500C205C181413F1C40E5
:104C08000145A69723A0070023A20700B24022442B
:104C180092444101828009458280411106C6EFF025
:104C2800DF9209C50845B240410182800145E5BFD0
:104C3800F54763EEA7049387418E9C43131735000D
:104C4800BA979843894729C7011126CA06CE9334D3
:104C5800F50022CCB94793C4140063F3A7004515A7
:104C680005443314A400420441802EC62685A2853B
:104C78006D378947324611C5A2852685EFF0DFDA00
:104C88008147F2406244D2443E850561828089476B
:104C98003E8582802390A18E2391B18E828041111E
:104CA80006C623A8A18E0295B24023A2A1B0014551
:104CB80041018280854763E7B7008A059387818E23
:104CC800BE9588C18280411106C622C426C2EF70F3
:104CD8004128214681451385818EEFF09F951384E5
:104CE80001AF1306000222858145EFF09F9423AAA5
:104CF800018E23A8018E83C701AD13D527008D8BA4
:104D08003E958D473305F502994793051010938416
:104D1800818F35051375F50F2301A4003305F502BE
:104D28001305050F97000020E78080F223A2A18ECB
:104D3800834724001305050F88C08A073E9523AED4
:104D4800A18CEFF03F802D2E834714009840170662
:104D580000001306C68193962700BA9690C29386E0
:104D68002700850793F7F70FA300D400B240224429
:104D78008A07BA9790C392444101828083C711AFD2
:104D880003C721AF63FFE7001387818F184393861A
:104D98001700A388D1AE93962700369708C33E859F
:104DA80082809307F00FE5BF411126C2044106C671
:104DB80022C44AC08947638E040E4177658FB706BF
:104DC800002089476317D70E035945006303090E6E
:104DD8002A8419469305F00F5905EFF0BF8F054750
:104DE8008D476308E50C4A8681452685EFF07F8468
:104DF8001306C0038145138541ABEFF09F8313066B
:104E0800C003A285138541AB97F0FF1FE780E05DE3
:104E180083D701AC138741AB89E793070020239020
:104E2800F1AC83C721AC81E785472381F1AC83C707
:104E380031AC81E7ED47A381F1AC83C741AC81E791
:104E480095472382F1AC83C751AC81E78547A3829C
:104E5800F1AC83C791AC89E783470701A384F1AC20
:104E680083C761AC81E7D1472383F1AC83C721AD08
:104E780089E7930780022389F1AC8D4683C721AD6A
:104E8800B3D7D70283C671AC85EE9387D70293F761
:104E9800F70FA383F1AC8347D40181E78947A3883F
:104EA800F1AC1C5781C78297239BA1AEEFF0BFE1FD
:104EB8008147B2402244924402493E8541018280A2
:104EC80083463401B697E1B7411106C697F0FF1F34
:104ED800E780207083C681AC858AB1C293073033DE
:104EE8003307F502B337F5023983CA07D98F138719
:104EF80001AF584B01456301F7023385E740636B07
:104F0800F70037653D0889C637856F081305059092
:104F1800198D3E9523A2F1B0B24041018280E54748
:104F28003307F502B337F5022583DE07C1B7011150
:104F380022CC06CE2A842EC6EFF0EFEAB245F24024
:104F4800818D33A5A502229562441375F50F05617D
:104F58008280011122CC06CE2A842EC6EFF0AFE85B
:104F6800B245F240818D33A5A502229562444205DF
:104F7800418105618280011122CC06CE2A842EC689
:104F8800EFF06FE6B245F240818D33B5A502229568
:104F9800624405618280938741AB985731CB4111B8
:104FA80022C426C206C6BE84029703D761AF2A84EC
:104FB80035C7BA876373A700AA87C207C183BA86B1
:104FC8006373E400A286C206C182958F5147635776
:104FD800F704DC5491C382978547238AF1CEEF20EA
:104FE800C104239B81AEB240224492444101828095
:104FF80083C741CF8DE39387C1CE83C797008507C9
:1050080093F7F70FA38AF1CEA18B8DC38547239A17
:10501800F1CE6F20E106A38A01CEE5BF83C741CF59
:10502800F9D32244B24092444101E5B78280938784
:1050380041ABD857011122CC06CE3E8401C72AC6FF
:105048000297324511CD23AEA18E17050000130536
:10505800E5E7EFF0DFC4F240624401450561828074
:105068008307440163D9070097F7FF1F93874752C7
:1050780023AEF18ED9BF97F7FF1F93878755CDBF12
:10508800011122CC138441AB084406CE26CA19E587
:105098000545F2406244D244056182805C58EDDBEC
:1050A800185C7DD77000854582971844B247E301A4
:1050B800F7FE8357C40003C521AC9305E00433050C
:1050C800F502938401AF4205418197000020E780F3
:1050D80020B823A6A1B04DDD83D701AC03C621AC0F
:1050E8003306F6029305F00FEFF0AFD4D04C084426
:1050F80083D701AC08C283C521ACB385F5021C5C1B
:1051080089818297C84C97000020E78020C001451C
:1051180023A601B0BDBF411122C4138441AB1C4476
:1051280026C206C6938401AFA9CF1C5CB9CBDC4C60
:105138008DE38357C40003C521AC9305E004330510
:10514800F5024205418197000020E78060B023A660
:10515800A1B0C84C1DC583D701AC03C621AC33062A
:10516800F6029305F00FEFF0CFCCD04C084483D76C
:1051780001AC08C283C521ACB385F5021C5C8981EA
:105188008297C84C19C597000020E78020B823A64D
:1051980001B0B2402244924401454101828001118C
:1051A80026CA938401AF22CCC04C4EC652C456C204
:1051B80006CE4AC8AA8AAE89328A31E4138941AB3D
:1051C8008327890099E3A94441A08357C90003C5EF
:1051D80021AC9305E0043305F502420541819700AF
:1051E8000020E780E0A62A8441C183274903ADCF88
:1051F80083C521AC03D701ACB385E5022A86032514
:1052080089008981829791451307A0058981939721
:105218002500A29783C607006395E60483C6170096
:10522800639E560385058A054E86A295528597F09A
:10523800FF1FE780801BDC4C814463878700228541
:1052480097000020E78080ACF240624426854249FE
:10525800D244B249224A924A0561828083D5270006
:1052680075B7DC4CE38187F6228597000020E7803C
:10527800E0A991BF938741AB984729C39C5F9DCF15
:105288008546631DD502411122C4138401AF504CD9
:1052980006C60DC283D601AC83C521ACB385D50241
:1052A8003A8589818297484C97000020E78000A6BC
:1052B80023A601B0B24022444101828082809387B4
:1052C80001AFD84F011122CC26CA4AC852C406CE13
:1052D8004EC62A89AE8432843E8A21EF938941AB37
:1052E80083D7C90003C521AC9305E0043305F50253
:1052F8004205418197000020E780809523A6A1B050
:105308002A8611E92945F2406244D2444249B24909
:10531800224A0561828003A5890001CD83A749033C
:1053280089CB83C521AC03D701ACB385E50289815C
:1053380082970325CA0191461308A005FD5593D706
:105348002600C207C183139727002A970346070040
:10535800631B06038348170003562700639328033B
:10536800B306D64063CD960085078A073E95268604
:10537800A28597F0FF1FE7804007014569B7A300A2
:10538800B700B2866DBF03D601AC83C521ACB38527
:10539800C502338696001106E3E6C5F61386340087
:1053A800719A1106B29623000701A3002701231161
:1053B800D7005DBF0145828083C705002300F50043
:1053C80083D72500A300F50083D72500A1832301F7
:1053D800F50083C74500A301F5001145828023A28B
:1053E800019023A00190828029C1411126C206C6DE
:1053F80022C4AA8401458DC52E84228541469795ED
:1054080001009385252997F0FF1FE78000FE83C7D9
:10541800040005452306F40083C71400A306F4001E
:10542800B2402244924441018280014582800111A8
:1054380022CC26CA06CE0947AA8432846381E504B1
:1054480041468147639BC500638FE6006397B600BA
:105458000DA841478147638EE600F2406244D2447A
:105468003E85056182808A852285BD3F41468A85C1
:1054780019A88A85953F41468A85228531A0E39AF5
:10548800B6FC2E86A2852685EFF0CFA0AA87F1B7B5
:1054980023A2A1908280011122CC0354650006CE7C
:1054A80026CA4AC84EC641C083298500AE842A88C8
:1054B80003C90900814713178901618763550702EA
:1054C800B147054563FA870451144204035528007F
:1054D800418033878900A2864E868545EF90F02863
:1054E800B337A00085077D14135569004204058968
:1054F8001379F90341802380F400A380A400238159
:10550800240123928400014719C01387190098C405
:1055180009476383E7000145F2406244D2444249A7
:10552800B249056182800545C5BFC167F917630A9D
:10553800F502D94763F7B702011122CC2EC606CE71
:105548002A84EF503025B2456368B500228562444D
:10555800F24005616F702026F240624405450561FE
:10556800828005458280C167F9176314F5006F5082
:105578007022411106C6EF70001411E15D45B2407A
:105588004101828039714ED656D25AD006DE22DCCD
:1055980026DA4AD852D4AA8A2E8BB28941EF36C667
:1055A800D9379145EF50702EAA844D492DC9B2467E
:1055B800054A238034010544630A0B00B685138528
:1055C8001400029B0505131405014180E20993D9D3
:1055D800894163D30902C1455685EF70C01A6549F0
:1055E80005E933868400A2852685EF90005C2A8928
:1055F80005E131044204418091472C085685231C5B
:10560800F10026CE231D8100EF6010312A8901C9DF
:1056180063070A00268597F0FF1FE780206FF25086
:1056280062544A85D2544259B259225A925A025B5C
:1056380021618280BA84014AADBF011122CC26CAF9
:105648004AC84EC606CE2A893284B689253FAA841E
:1056580005E1938741909C4381CF05476317E40098
:1056680003C4090005041374F40FA2854A858297C0
:10567800F240624426854249D244B249056182809B
:10568800AE860147054697050000938525D375B773
:10569800011106CE2EC6EF60907E01C9B245F240D8
:1056A8000355250005616FA00030F24049450561AA
:1056B8008280A38801922388019223AC019023AEB3
:1056C800019023A0019223A2019223AA019023A86A
:1056D8000190938701B13707B40098C33747A000FA
:1056E800D8C3370710009306070A94C7B7065000B7
:1056F800C106D4C7930607054107D8CB3707D0079B
:10570800410798CF37070F0098D337C7070013070B
:1057180007B8D8D3416794CB93060701130717F846
:10572800D8D7417723AE070094D798DB8280011140
:1057380026CAAA84214522CC06CE2E8432C636C477
:105748003AC2EFE09FD01DC9A246124732469307DE
:1057580000FD2300F5009947A30095002301F500FB
:105768002303D500A303E5002312C500AA852285DB
:105778006244F240D24405616FE0BFD7F240624410
:10578800D2440561828023ACA190828023AEA1908F
:10579800828023A0A192828023A2A19282800111FB
:1057A80022CC4AC806CE26CA2A890144B3048900F5
:1057B8006368B400F2406244D24442490561828081
:1057C8002EC6EFE05FE293170501C183A183B245BE
:1057D8002380F4009307140093F7F70F850463F907
:1057E800B700CA9709042380A7001374F40F7DBF7C
:1057F8003E847DBFC16703D5A1B4FD176300F502E0
:10580800411103C6819B9385819206C6EF60305291
:10581800B240FD572395F1B441018280828009C9C5
:1058280025151375F50F1335850E13451500828060
:105838000145828023800500F94763E2C708797132
:1058480022D426D24ECE56CA5AC806D64AD052CCF0
:105858005EC63684B289AE8A2A8B814463FF3405DA
:10586800B307940003CA0700138914001379F90FCA
:1058780063050A04B3072A0163C1F904B3072401C5
:1058880083CB07005E85613F0DC99307FAFF23802C
:10589800FA0063906B03130519002295B250225445
:1058A80092540259F249624AD24A424BB24B45617C
:1058B8008280D29493F4F40F55B70145C5B70145DA
:1058C8008280411126C2AE8422C423ACC1B423AA6B
:1058D800B1B423A8A1B42A8441469305F00F2685C4
:1058E8004AC006C60549EFE0FFDE631C250393871F
:1058F80041B4884BC145EFF09FEA41469305F00F4C
:105908002285EFE03FDD85446315950222449387A5
:1059180041B4B24092440249C847C14541016FF0C1
:105928001FE8414681452685EFE0DFDAE31725FDCC
:105938007DBF414681452285EFE0DFD9E30895FC2C
:10594800B24022449244024941018280411122C45A
:1059580026C22E84AA84130600028145138541B409
:1059680006C6EFE01FCDA38391B4A38D819AEFA063
:105978000005854719C181474945B2402244238221
:10598800F1B4924441018280814781CD19C985478C
:10599800631BF50083C7550093E707FCA382F50056
:1059A80085473E85828089476317F50083C7550080
:1059B80093F7F703E5B70D478547E314E5FE03C7FB
:1059C80055001377F70313670704A382E500D1BFD7
:1059D80081478DC105C103C755009306000C854753
:1059E8001377070C6308D700930600048D476303F9
:1059F800D70089473E858280411122C4005D06C6D2
:105A080026C21DC8AA84085009C597F0FF1FE78061
:105A1800E02F485009C597F0FF1FE780202F085452
:105A280009C597F0FF1FE780602E228597F0FF1FBA
:105A3800E780C02D23AC0402B240224492444101C5
:105A4800828009E983C761B41385C1B591C71385FD
:105A5800819082801385C1B5828003C561B482803C
:105A6800938741B4C8478280938741B4884B82802A
:105A7800938741B4DC4B88438280938741B4D84BE9
:105A88001C4385071CC303C571B49307F00F630556
:105A9800F50091656FE07FC68280011122CC06CEA9
:105AA8002E8432C6EF60B04C9147B245631FF500B3
:105AB800938741929C438DC303A30700630E0300A1
:105AC80022856244F240056102839387C1919C4319
:105AD80081C703A34700DDB7F2406244054505616D
